:100000000C94C3010C94F4010C94F4010C94F401CD
:100010000C94F4010C94F4010C94F4010C94F4018C
:100020000C94F4010C94F4010C94F4010C94F4017C
:100030000C94F4010C94F4010C94F4010C94F4016C
:100040000C94F4010C94F4010C94F4010C94F4015C
:100050000C94F4010C94F4010C94F4010C94291107
:100060000C94F4010C944A0D0C94800D0C94F40142
:100070000C94F4010C94F4010C94F4010C94F4012C
:100080000C94F4010C94F4010C94F4010C94F4011C
:100090000C94F70D0C942D0E0C94F4010C94F401B7
:1000A0000C94F4010C94F4010C94F4010C94F401FC
:1000B0000C94F4010C94F4010C94F4010C94F401EC
:1000C0000C94F4010C94F4010C94F4010C94F401DC
:1000D0000C94F4010C94F4010C94F4010C94F401CC
:1000E0000C94F4017412771266126A127012AE1236
:1000F0007B127F12851289128D12931297129B1216
:10010000AE12A112A512A9120C94AA0D0C9477128A
:100110000C94A1030C946A120C94450A0C9470126E
:100120000C949B120C94A9120C94B40D0C94931281
:100130000C94A5120C948D120C9466120C948912D6
:100140000C9485120C94030C0C9474120C94A40E51
:100150000C9497120C94D60B0C94EF0B0C94830C0C
:100160000C94570E0C942B0A0C94A1120C947B1235
:100170000C94AE120C947F120C94E10B0C94610C55
:100180000C94610E4E4F434845434B53554D200050
:10019000424144434845434B53554D20004241445E
:1001A0004C494E454E554D2000543130303B2D20AA
:1001B000746869732068656C70206D65737361671E
:1001C000650054323B2D2D2074726967676572207B
:1001D00066756C6C2070726F6772616D65642073F8
:1001E000657175656E63650054313B2D2D20747209
:1001F00069676765722063616D6572612066756C01
:100200006C79206F6E636500436F6D6D616E647312
:100210003A00696E74657276616C6F6D65746572B3
:1002200020776974682047636F64652020003E0072
:1002300020463437353B004731205A0000000A0B76
:1002400002090C0D0E080703040100000000000065
:10025000000000000000000000000000000000009E
:10026000000000000000000012111000000000005B
:10027000000000000000000000000000000000007E
:1002800000000102102020080810204010204080AB
:10029000020102010804020101020408102040804A
:1002A00080402010080402018004020180402010D8
:1002B0000804020108040201010204081020408021
:1002C00001020408102040800505050507050808FF
:1002D0000808020202020A0A0808040404040101D0
:1002E00001010101010103030303030303030407E5
:1002F00007070C0C0C0C0C0C0C0C0202020206067C
:100300000606060606060B0B0B0B0B0B0B0B000071
:100310002200250028002B002E00310034000201AD
:100320000000050108010B01000021002400270046
:100330002A002D00300033000101000004010701F4
:100340000A014E414E494E495459494E46CDCCCCF6
:100350003D0AD7233C17B7D13877CC2B329595E699
:10036000241FB14F0A000020410000C84200401C79
:100370004620BCBE4CCA1B0E5AAEC59D74002B0A4B
:10038000B40D610E450A11241FBECFEFD1E2DEBFCE
:10039000CDBF00E00CBF12E0A0E0B2E0E2E8FEE278
:1003A00000E00BBF02C007900D92A838B107D9F743
:1003B00024E0A8E8B2E001C01D92A53BB207E1F736
:1003C00013E0C4E8D3E000E006C022970109FE0173
:1003D0000BBF0E944F13CE37D10780E00807A9F763
:1003E0000E94C90A0C942F170C940000CF93DF933E
:1003F000EC0160E08E810E94E81281E090E00E94B2
:10040000CA1161E08E810E94E81281E090E00E94B2
:10041000CA1160E08E810E94E81284E690E0DF91CC
:10042000CF910C94CA11CF92DF92EF92FF920F936B
:100430001F93CF93DF937C01C0E0D0E0C62ED12C78
:1004400087010C0F1D1F61E0F80187810E94AF1228
:10045000B6010C2E02C0759567950A94E2F761709B
:10046000F80187810E94E8122196C430D10541F736
:10047000C701DF91CF911F910F91FF90EF90DF9017
:10048000CF900C94F601CF92DF92EF92FF920F93F0
:100490001F93CF93DF937C01C0E0D0E0C62ED12C18
:1004A00087010C0F1D1F61E0F80187810E94AF12C8
:1004B000B6010C2E02C0759567950A94E2F761703B
:1004C000F80187810E94E8122196C830D10541F7D2
:1004D000C701DF91CF911F910F91FF90EF90DF90B7
:1004E000CF900C94F6011F93CF93DF93EC01162F5E
:1004F000642F8C810E94E8128D818F3F19F060E09B
:100500000E94E8128F85612F84FF06C0CE01DF9123
:10051000CF911F910C94430270E084E0759567952C
:100520008A95E1F7CE010E941302612FCE01DF917F
:10053000CF911F910C94130240E00C94730261E080
:100540000E949C0280ED97E00C94CA11443008F0A0
:1005500043E0FC012389421710F04FEF420FFC01EA
:10056000E40FF11D2489260F2068622F0C949C0251
:10057000FC016089262F2460208B6C600C949C0207
:10058000CF93DF93EC01423018F08F8588608F871E
:100590004B8B1C8A80E48D8B6E8B70E0605C7F4F90
:1005A0006F8B222329F0413019F48F8584608F8767
:1005B00080E593EC0E94CA1160E08C810E94E812F1
:1005C00060E08E810E94E8128D818F3F19F060E01B
:1005D0000E94E8126F8564FD1DC063E0CE010E9499
:1005E000130284E991E10E94CA1163E0CE010E94E6
:1005F000130284E991E10E94CA1163E0CE010E94D6
:10060000130286E990E00E94CA1162E0CE010E94C6
:10061000130216C06062CE010E949C0284E991E13F
:100620000E94CA116F856062CE010E949C0286E919
:1006300090E00E94CA116F856062CE010E949C0208
:100640006F856062CE010E949C0284E0888BCE019F
:100650000E94B802CE010E949F0282E0898B66E070
:10066000CE01DF91CF910C949C026F927F928F927A
:10067000AF92CF92EF920F931F93CF93DF93CDB7AB
:10068000DEB73C01162F842F5E854F853889998906
:10069000F301848325830683E782C086A186828650
:1006A000538744873587968761E00E94AF12F30134
:1006B00085818F3F19F061E00E94AF1261E0F30184
:1006C00086810E94AF12112319F0F301178603C02F
:1006D00080E1F301878720E041E060E1C301DF9121
:1006E000CF911F910F91EF90CF90AF908F907F900F
:1006F0006F900C94C0028F92AF92CF92EF920F93B3
:10070000DC0113961C921E921297EBE1F2E0ED933E
:10071000FC931F921F921F921F928C2CAE2CC02E06
:10072000E22E042F2FEF462F61E00E9435030F9039
:100730000F900F900F900F91EF90CF90AF908F9000
:10074000089541E00E94730281E090E00895FC0169
:1007500081E190E09183808383E090E093838283C2
:1007600087E390E09583848388E390E09783868392
:100770008AE090E09187808789E090E09387828784
:1007800087E090E09587848785E090E0978786876B
:1007900084E090E0918B808B8DE090E0938B828B56
:1007A00008950895FC01848195810895FC01808558
:1007B00091850895FC01828593850895FC018485C7
:1007C00095850895FC01868597850895FC018089AB
:1007D00091890895FC018289938908950895CF92A3
:1007E000DF92EF92FF926B017C0167E372E08DE094
:1007F00094E00E94E20EC701B6010E94711420E04D
:1008000030E04AE754E40E94D613AB01BC0123E078
:1008100030E08DE094E00E94271160E372E08DE00B
:1008200094E0FF90EF90DF90CF900C94240F0F9303
:100830001F93A0919802B0919902209102023091E9
:10084000030240910402509105020E944713009157
:100850000602109107022091080230910902600FF0
:10086000711F821F931F609394027093950280936F
:100870009602909397020E94EF0381E080939E027C
:100880001F910F91089582EF92E00E94EA0360E0C9
:100890000E94E81261E086E093E00E94CC0B82EFB8
:1008A00092E00E94E20360E00E94E81282EF92E090
:1008B0000E94E60361E00C94E81282EF92E00E944D
:1008C000EA0361E00E94E81261E086E093E00E94A2
:1008D000C70B82EF92E00E94D60361E00E94E8120B
:1008E00082EF92E00E94DA0361E00E94E81282EF58
:1008F00092E00E94E20361E00C94E812CF92DF9252
:10090000EF92FF928091F0029091F1020196909304
:10091000F1028093F00282EF92E00E94EA0360E02D
:100920000E94E81261E086E093E00E94C20B82EF31
:1009300092E00E94DE0361E00E94E8120E947311BF
:10094000AB01BC012AE030E080E793E00E942A106E
:1009500086E093E00E94100B6B017C0186E093E03F
:100960000E94F80AAB01BC014C0D5D1D6E1D7F1D80
:1009700086E093E0FF90EF90DF90CF900C94970B80
:1009800082EF92E00E94EA0361E00E94E81261E0D7
:1009900086E093E00E94D10B82EF92E00E94DE039A
:1009A00060E00E94E81282EF92E00E94E60360E0BD
:1009B0000C94E81282EF92E00E94D60360E00E945D
:1009C000E81282EF92E00E94DA0360E00C94E812F1
:1009D0001092AD021092AC026EE272E080E793E0FA
:1009E0000C94E20E62E172E080E793E00E94E20E76
:1009F0004AE050E062E070E080E793E00E94F30F8D
:100A000068E072E080E793E00E94240F68EE71E0F6
:100A100080E793E00E94240F62EC71E080E793E0AE
:100A20000E94240F69EA71E080E793E00C94240FA0
:100A300020E042E060E188E593E00E94C0026FE1BF
:100A400072E088E593E00E94070F82EF92E00E9437
:100A5000EA0361E00E94AF1226E040E052EC61E060
:100A600070E080E793E00E94E80C26E040E052EC62
:100A700061E070E08DE094E00E94E80C0E94F204D6
:100A80000E94E80440E951E060E070E086E093E015
:100A90000E94550B44E650E060E070E086E093E091
:100AA0000E94670B44E650E060E070E086E093E06F
:100AB0000E945B0B4AE050E060E070E086E093E06B
:100AC0000E94610B4AE050E060E070E086E093E055
:100AD0000E946D0B48EE53E060E070E086E093E02A
:100AE0000E94730B40E050E0BA0186E093E00E9460
:100AF000970B82EF92E00E94D60361E00E94AF1252
:100B000082EF92E00E94D60360E00E94E81282EF3A
:100B100092E00E94DA0361E00E94AF1282EF92E05D
:100B20000E94DA0360E00E94E81282EF92E00E94E5
:100B3000DE0361E00E94AF1282EF92E00E94DE03CA
:100B400060E00E94E81282EF92E00E94E20361E01E
:100B50000E94E81282EF92E00E94E20361E00E94AC
:100B6000AF1282EF92E00E94E20361E00E94E8127D
:100B700082EF92E00E94E60361E00E94AF1282EFF2
:100B800092E00E94E60360E00E94E81282EF92E0A9
:100B90000E94EA0360E00E94E81264EF71E080E0E6
:100BA00090E00E94A21182EF92E00E94EA0361E0CD
:100BB0000E94E8121092A7020895CF92DF92EF925E
:100BC000FF920E9473116B017C0186E093E00E940A
:100BD000F80AA7019601261B370B480B590BCA01CF
:100BE000B901FF90EF90DF90CF9008951092A70287
:100BF00063E272E080E793E00C94360FCF92DF92CD
:100C0000EF92FF926B017C0186E093E00E94040B5F
:100C1000A7019601261B370B480B590BDA01C901B6
:100C200081159E45A04DB24B50F4B701A60186E058
:100C300093E0FF90EF90DF90CF900C94850BFF90A6
:100C4000EF90DF90CF9008958F929F92AF92BF92D6
:100C5000CF92DF92EF92FF920F931F9386E093E083
:100C60000E94160B6B017C0186E093E00E94F80A5B
:100C700097018601061B170B280B390BB901A80138
:100C800086E093E00E94910B86E093E00E94100BB7
:100C900061367A4E8105910574F048EE53E060E0CC
:100CA00070E086E093E00E94910B60E372E080E7E1
:100CB00093E00E94360F0E9473114B015C0186E0A5
:100CC00093E00E94DA0A6B017C01C80CD91CEA1C73
:100CD000FB1C86E093E00E94EC0AC60ED71EE81EBD
:100CE000F91E86E093E00E94F80AC61AD70AE80ABD
:100CF000F90A86E093E00E94100B6C157D058E05C5
:100D00009F0534F4B701A60186E093E00E94910BA1
:100D100086E093E00E94010B882381F086E093E057
:100D20000E940A0B6B017C0186E093E00E94100B8D
:100D30006C157D058E059F050CF47CC086E093E064
:100D40000E94100B6B017C0186E093E00E94EC0A8C
:100D500097018601061B170B280B390BB901A80157
:100D600086E093E00E94A30B86E093E00E94100BC4
:100D70006B017C0186E093E00E94EC0AC61AD70A58
:100D8000E80AF90A86E093E00E94DA0A97018601F0
:100D9000061B170B280B390BB901A80186E093E05D
:100DA0000E949D0B86E093E00E94100B6B017C017A
:100DB00086E093E00E94F20A97018601061B170B5A
:100DC000280B390BB901A80186E093E00E94AA0B19
:100DD00086E093E00E94290B6B017C0186E093E0A2
:100DE0000E94E60AAB01BC014C0D5D1D6E1D7F1D0E
:100DF00086E093E00E94B20B86E093E00E94100B25
:100E00006B017C0186E093E00E94E00AAB01BC012B
:100E10004C0D5D1D6E1D7F1D86E093E01F910F91AF
:100E2000FF90EF90DF90CF90BF90AF909F908F900A
:100E30000C94BA0B86E093E00E940A0BAB01BC0154
:100E400086E093E00E94910B79CFCF92DF92EF92F0
:100E5000FF920F931F930E947311AB01BC0186E0B8
:100E600093E00E94790B86E093E00E94010B8823B7
:100E7000B1F086E093E00E94040B6B017C0186E0F8
:100E800093E00E94F80A97018601061B170B280BB6
:100E9000390BB901A80186E093E00E948B0B60E05A
:100EA00086E093E00E94CC0B60E086E093E00E9435
:100EB000C70B60E086E093E00E94C20B60E086E032
:100EC00093E00E94D10B86E093E00E94FE0A81111C
:100ED0000E9417040E94240686E093E00E94DA0A2A
:100EE000672B682B692B19F088E090E002C08CE03A
:100EF00090E090938902809388021F910F91FF9058
:100F0000EF90DF90CF9008950F931F9380918A0206
:100F100090918B02019690938B0280938A0220918C
:100F2000000230910102821793070CF475C01092F1
:100F30008B0210928A0280919802909199020196F8
:100F4000909399028093980220910E0230910F02A3
:100F500082179307F4F110929902109298028091EF
:100F60009F029091A00201969093A00280939F020D
:100F70002091140230911502821793073CF01092D1
:100F8000A00210929F020E94F60516C06091100206
:100F90007091110280911202909113020091A102AE
:100FA0001091A2022091A3023091A402600F711F40
:100FB000821F931F0E94FE0586E093E00E94040BAF
:100FC0006093A1027093A2028093A3029093A40263
:100FD00016C060910A0270910B0280910C029091F0
:100FE0000D0200919A0210919B0220919C02309177
:100FF0009D02600F711F821F931F0E94FE0586E0F5
:1010000093E00E94040B60939A0270939B0280937A
:101010009C0290939D0216C0609190027091910283
:10102000809192029091930200918C0210918D0216
:1010300020918E0230918F02600F711F821F931FCB
:101040000E94FE0586E093E00E94040B60938C02F0
:1010500070938D0280938E0290938F028091A702ED
:10106000882321F01F910F910C9425071F910F9158
:1010700008950E94DA048091A5029091A602029739
:1010800011F40C9484071092A7020895CF92DF9276
:10109000EF92FF920E94DD056B017C0186E093E0F8
:1010A0000E94410B811109C086E093E00E941C0B55
:1010B000C616D706E806F906E0F586E093E00E943A
:1010C000460B811109C086E093E00E94220BC616F0
:1010D000D706E806F90680F586E093E00E944B0B00
:1010E000811109C086E093E00E94290BC616D7063D
:1010F000E806F90620F586E093E00E94500B811186
:1011000009C086E093E00E94310BC616D706E806B8
:10111000F906C0F486E093E00E94390BC616D706A4
:10112000E806F90690F0FF90EF90DF90CF900C94D6
:1011300039080E944304C1CF0E945D04CDCF0E94B4
:101140007E04D9CF0E94C004E5CFFF90EF90DF90DE
:10115000CF9008958091A70281111BC06BE472E0CB
:1011600080E793E00E94360F60E086E093E00E9403
:101170007F0B60E086E093E00E94820B81E0809329
:10118000A70281E090E09093A6028093A5020C94C0
:10119000250708958091A702811145C06BE572E093
:1011A00080E793E00E94360F61E086E093E00E94C2
:1011B0007F0B61E086E093E00E94820B81E08093E8
:1011C000A70282E090E09093A6028093A5020E947D
:1011D00073116093A1027093A2028093A302909373
:1011E000A4021092A00210929F020E9473116093B9
:1011F0009A0270939B0280939C0290939D0210929E
:101200009902109298020E94731160938C0270935D
:101210008D0280938E0290938F0210928B02109217
:101220008A020C942507089582EF92E00E94D2036F
:101230000E943612893B910514F40C94AA08883454
:10124000914014F40C94CA080895CF92DF92EF9263
:10125000FF921F93CF93DF93182F6A017B01C091F8
:10126000AC02D091AD02C255DD4F8EEA92E00097FC
:10127000C9F0FC0120812223A9F08C179D0790F46E
:1012800021130AC00196DF91CF911F91FF90EF903B
:10129000DF90CF900C94FD1660E270E00E94211761
:1012A0000196E5CFC701B601DF91CF911F91FF9065
:1012B000EF90DF90CF9008950F931F938091AE022F
:1012C0008B3309F4C5C040E050E060E87FEB8EE46A
:1012D0000E9425090E943E146F3F2FEF720782077C
:1012E000920709F462C02091AE022E3409F05DC06D
:1012F0000091A8021091A9022091AA023091AB029C
:10130000601771078207930719F06DE971E023C038
:101310006AE270E08EEA92E00E942117892B79F14F
:10132000EEEAF2E000E0CF018E5A924021912A329B
:1013300011F00227F8CF60E070E081559D4F0E94C8
:101340008C15112707FD10950E943E1406171707EC
:10135000C9F060E971E080E793E00E94E20E4091FD
:10136000A8025091A9026091AA027091AB022AE0F2
:1013700030E080E793E01F910F910C940B1064E82C
:1013800071E0E9CF8091A8029091A902A091AA02F0
:10139000B091AB020196A11DB11D8093A80290935C
:1013A000A902A093AA02B093AB0240E050E060E82B
:1013B0007FEB84E40E94250940E050E060E87FEB89
:1013C0008DE40E9425090E943E1464367105810552
:1013D000910511F40E94F20440E050E060E87FEBD8
:1013E00084E50E9425090E943E146A357105810535
:1013F000910509F174F46130710581059105B9F029
:10140000623071058105910519F51F910F910C94BA
:10141000CA086B3571058105910591F06436710537
:1014200081059105A9F41F910F910C94F2041F916D
:101430000F910C94AA0860E177E280E090E004C08C
:1014400068E97AE380E090E01F910F910C94EF033C
:101450001F910F910895CF92EF920F9380E2C82EC3
:1014600091E2E92E02E223E244E265E288E593E0BC
:101470000E947B0386E093E00E94D80A82EF92E00C
:101480000F91EF90CF900C94A70382EF92E00E940F
:10149000D10386E093E00C94D90ACF9380E793E0E0
:1014A0000E94D60B18161906E4F580E793E00E9417
:1014B000EF0BC82F682F8DE094E00E94090FCD300C
:1014C00069F36C2F80E793E00E94090F2091AC0232
:1014D0003091AD02203431055CF4A9014F5F5F4FBC
:1014E0005093AD024093AC02F901E255FD4FC08329
:1014F000CA30A1F6E091AC02F091AD02E255FD4F89
:1015000010820E945C090E94E804C8CF8DE094E03C
:101510000E94EF0B8D3029F0682F80E793E00E9446
:10152000090F8DE094E00E94D60B1816190674F38B
:10153000CF9108952091EE023091EF028091F00258
:101540009091F10228173907C1F041E060E088E589
:1015500093E00E94A6026091F0027091F1024AE0CD
:1015600050E088E593E00E94EB0F8091F0029091AB
:10157000F1029093EF028093EE028091A7028823FC
:1015800021F00E9446080C9414090E9414090C943E
:101590004D0A0E94D4110E94EE030E941805C3E078
:1015A000DCE00E949A0A2097E1F30E94030CF9CF35
:1015B00008950895FC01608171818281938108956D
:1015C000FC0164817581868197810895FC016085A5
:1015D0007185828593850895FC016485758586856E
:1015E00097850895FC01608971898289938908959E
:1015F000FC01608D718D828D938D0895FC0180A119
:101600000895FC0181A10895FC0162A173A184A148
:1016100095A10895FC0166A177A180A591A50895E3
:10162000FC0162A573A584A595A50895FC0166A596
:1016300077A580A991A90895FC0162AD73AD84AD31
:1016400095AD0895CE96FC01608171818281938170
:1016500008958E5B9F4FFC0160817181828193812F
:1016600008958A5B9F4FFC01608171818281938123
:101670000895865B9F4FFC01608171818281938117
:101680000895825B9F4FFC0180810895815B9F4F8D
:10169000FC0180810895805B9F4FFC01808108954B
:1016A0008F5A9F4FFC0180810895FC014083518334
:1016B000628373830895FC01448355836683778333
:1016C0000895FC0140875187628773870895FC0164
:1016D00044875587668777870895FC01408B518B37
:1016E000628B738B0895FC01448B558B668B778BD3
:1016F0000895FC01408F518F628F738F0895FC0114
:1017000060A30895FC0161A30895FC0142A353A3C3
:1017100064A375A30895FC0146A357A360A771A70E
:101720000895FC0142A753A764A775A70895FC017B
:1017300046A757A760AB71AB0895FC0142AF53AF0A
:1017400064AF75AF0895CE96FC01408351836283E8
:10175000738308958E5B9F4FFC01408351836283A6
:10176000738308958A5B9F4FFC014083518362839A
:1017700073830895865B9F4FFC014083518362838E
:1017800073830895805B9F4FFC0160830895815BA4
:101790009F4FFC0160830895825B9F4FFC01608333
:1017A00008958F5A9F4FFC0160830895FC01818D3D
:1017B000228D90E0805C9F4F821B91098F73992747
:1017C0000895FC01918D828D981731F0828DE80F7C
:1017D000F11D858D90E008958FEF9FEF0895FC0136
:1017E000918D828D981761F0828DDF01A80FB11D58
:1017F0005D968C91928D9F5F9F73928F90E008957C
:101800008FEF9FEF08958AEA9DE0892B41F080E0F9
:1018100090E0892B21F00E94AA0D811125C087E557
:101820009EE0892B41F080E090E0892B21F00E941E
:10183000570E81111CC080E090E0892B41F080E0C0
:1018400090E0892B21F00E940000811113C080E0FC
:1018500090E0892BA1F080E090E0892B81F00E943C
:10186000000081110AC008950E940000D8CF0E9494
:101870000000E1CF0E940000EACF0C940000089520
:10188000FC01848DDF01A80FB11DA35ABF4F2C911D
:10189000848D90E001968F739927848FA689B789EC
:1018A0002C93A089B1898C9180648C93938D848DC5
:1018B000981306C00288F389E02D80818F7D808394
:1018C0000895CF93DF93EC01888D8823C9F0EA89CE
:1018D000FB89808185FD05C0A889B9898C9186FD29
:1018E0000FC00FB607FCF5CF808185FFF2CFA88926
:1018F000B9898C9185FFEDCFCE010E94400CE7CFD6
:10190000DF91CF910895CF92DF92FF920F931F93B3
:10191000CF93DF931F92CDB7DEB76C01DC015B96EE
:101920009C915B975C968C915C97981307C050963E
:10193000ED91FC915197808185FD32C0F601038DB8
:1019400010E00F5F1F4F0F731127F02EF601848DEB
:10195000F81211C00FB607FCF9CFD6015096ED91E1
:10196000FC915197808185FFF1CFC60169830E9468
:10197000400C6981EBCF838DE80FF11DE35AFF4FD7
:101980006083D6015B960C935B975296ED91FC9128
:10199000539780818062808381E058968C930DC03C
:1019A000D6015696ED91FC91579760835096ED9134
:1019B000FC91519780818064808381E090E00F905A
:1019C000DF91CF911F910F91FF90DF90CF900895FD
:1019D000BF92CF92DF92EF92FF92CF93DF93EC0111
:1019E0006A017B01B22EE889F98982E08083411582
:1019F00081EE580761057105A1F060E079E08DE3A3
:101A000090E0A70196010E941F132150310941095E
:101A100051095695479537952795211580E1380747
:101A200098F0E889F989108260E874E88EE190E026
:101A3000A70196010E941F13215031094109510944
:101A40005695479537952795EC85FD853083EE852E
:101A5000FF852083188EEC89FD89B082EA89FB8995
:101A6000808180618083EA89FB89808188608083AE
:101A7000EA89FB89808180688083EA89FB8980818B
:101A80008F7D8083DF91CF91FF90EF90DF90CF909B
:101A9000BF9008951F920F920FB60F9211240BB6AC
:101AA0000F922F938F939F93EF93FF93E091800377
:101AB000F09181038081E0918603F091870382FD9C
:101AC00012C09081809189038F5F8F7320918A0368
:101AD000821751F0E0918903F0E0E059FC4F958FB7
:101AE0008093890301C08081FF91EF919F918F9135
:101AF0002F910F900BBE0F900FBE0F901F90189557
:101B00001F920F920FB60F9211240BB60F922F93C4
:101B10003F934F935F936F937F938F939F93AF9375
:101B2000BF93EF93FF9380E793E00E94400CFF91F7
:101B3000EF91BF91AF919F918F917F916F915F9145
:101B40004F913F912F910F900BBE0F900FBE0F90B2
:101B50001F90189580E793E00E94D60B21E0892B17
:101B600009F420E0822F08951092730310927203FB
:101B700088EE93E0A0E0B0E0809374039093750347
:101B8000A0937603B09377038EE692E0909371036F
:101B90008093700385EC90E090937D0380937C03A9
:101BA00084EC90E090937F0380937E0380EC90E040
:101BB000909381038093800381EC90E09093830362
:101BC0008093820382EC90E090938503809384035A
:101BD00086EC90E0909387038093860310928903AC
:101BE00010928A0310928B0310928C0308951F9217
:101BF0000F920FB60F9211240BB60F922F938F9363
:101C00009F93EF93FF93E0911D04F0911E04808158
:101C1000E0912304F091240482FD12C09081809110
:101C200026048F5F8F7320912704821751F0E09173
:101C30002604F0E0E35FFB4F958F8093260401C0FC
:101C40008081FF91EF919F918F912F910F900BBE0B
:101C50000F900FBE0F901F9018951F920F920FB606
:101C60000F9211240BB60F922F933F934F935F93D4
:101C70006F937F938F939F93AF93BF93EF93FF9354
:101C80008DE094E00E94400CFF91EF91BF91AF91E5
:101C90009F918F917F916F915F914F913F912F9184
:101CA0000F900BBE0F900FBE0F901F9018958DE0F8
:101CB00094E00E94D60B21E0892B09F420E0822FCA
:101CC00008951092100410920F0488EE93E0A0E0A3
:101CD000B0E08093110490931204A0931304B09386
:101CE00014048EE692E090930E0480930D048DEC24
:101CF00090E090931A04809319048CEC90E09093F8
:101D00001C0480931B0488EC90E090931E04809345
:101D10001D0489EC90E09093200480931F048AECCA
:101D200090E090932204809321048EEC90E09093B5
:101D30002404809323041092260410922704109206
:101D40002804109229040895CF92DF92EF92FF9217
:101D50000F931F93CF93DF936C017A01EB01E60E93
:101D6000F71E00E010E0CE15DF0561F06991D601A5
:101D7000ED91FC910190F081E02DC6011995080FBD
:101D8000191FF1CFC801DF91CF911F910F91FF90E3
:101D9000EF90DF90CF9008956115710581F0DB0120
:101DA0000D900020E9F7AD0141505109461B570B3A
:101DB000DC01ED91FC910280F381E02D199480E02B
:101DC00090E00895EF92FF920F931F93CF93DF93CC
:101DD0008C01FB01C0E0D0E064917F018FEFE81A35
:101DE000F80A662361F0D801ED91FC910190F08131
:101DF000E02DC8011995C80FD91FF701EDCFCE010D
:101E0000DF91CF911F910F91FF90EF9008950C9467
:101E1000CC0EDC01ED91FC910190F081E02D199444
:101E20000F931F93CF93DF93EC016DE00E94090F96
:101E30008C016AE0CE010E94090F800F911FDF9193
:101E4000CF911F910F9108950F931F93CF93DF931D
:101E5000EC010E94E20E8C01CE010E94100F800F57
:101E6000911FDF91CF911F910F9108950F931F93B1
:101E7000CF93DF93EC010E94CC0E8C01CE010E9427
:101E8000100F800F911FDF91CF911F910F91089537
:101E90008F929F92AF92BF92CF92DF92EF92FF927A
:101EA0000F931F93CF93DF93CDB7DEB7A1970FB6F4
:101EB000F894DEBF0FBECDBF7C01C42EE52FCB0151
:101EC000D22E19A221E02D1510F02AE0D22E8E017B
:101ED0000F5D1F4F8D2C912CA12CB12C6C2D7E2FC2
:101EE000A50194010E941F138C2DD29E80191124EC
:101EF000015011098A3014F4805D01C0895CF80139
:101F00008083211531054105510521F0C22EE32FB3
:101F1000CA01E4CFB801C7010E94CC0EA1960FB64A
:101F2000F894DEBF0FBECDBFDF91CF911F910F910F
:101F3000FF90EF90DF90CF90BF90AF909F908F90E9
:101F40000895CF92DF92EF92FF920F931F93CF935A
:101F5000DF93EC016A017B012115310579F4E881F9
:101F6000F9810190F081E02D642FDF91CF911F91D5
:101F70000F91FF90EF90DF90CF9019942A303105A8
:101F8000E9F477FF1AC06DE20E94090F8C01442723
:101F90005527BA014C195D096E097F092AE0CE0167
:101FA0000E94480F800F911FDF91CF911F910F91D9
:101FB000FF90EF90DF90CF9008952AE0B701A6013F
:101FC000CE01DF91CF911F910F91FF90EF90DF90A5
:101FD000CF900C94480F9A01AB01662757FD60958E
:101FE000762F0C94A10F0F931F93CF93DF93EC01E7
:101FF0009A01AB01662757FD6095762F0E94A10FCD
:102000008C01CE010E94100F800F911FDF91CF91A4
:102010001F910F9108950F931F93CF93DF93EC01BE
:102020000E94A10F8C01CE010E94100F800F911F02
:10203000DF91CF911F910F9108952115310541F442
:10204000DC01ED91FC910190F081E02D642F199459
:102050000C94480F0F931F93CF93DF93EC010E94D2
:102060001D108C01CE010E94100F800F911FDF9177
:10207000CF911F910F9108954F925F926F927F922F
:102080008F929F92AF92BF92CF92DF92EF92FF9288
:102090000F931F93CF93DF93EC016A017B01B22E64
:1020A0009A01AB01C701B6010E948815882319F077
:1020B0006AE772E027C026013701E89477F82FEF2E
:1020C0003FEF4FE75FE7C301B2010E94881581111E
:1020D0000DC02FEF3FEF4FE75FE7C301B2010E9452
:1020E000D21318161CF46EE772E00CC02FEF3FEF0E
:1020F0004FE75FE4C701B6010E9421151816ACF442
:1021000062E872E0CE01DF91CF911F910F91FF90B5
:10211000EF90DF90CF90BF90AF909F908F907F9087
:102120006F905F904F900C94CC0E2FEF3FEF4FE7E6
:102130005FECC701B6010E94D21387FDE1CF20E01A
:1021400030E0A901C701B6010E94D21387FF0AC07F
:102150006DE2CE010E94090F8C01F7FAF094F7F8B6
:10216000F09402C000E010E0A12C60E070E080E09C
:102170009FE3AB1441F020E030E040E251E40E94E4
:10218000D613A394F6CF9B01AC01C701B6010E9400
:102190006E136B017C010E9443142B013C010E94D1
:1021A0006F149B01AC01C701B6010E946D136B0156
:1021B0007C012AE0B301A201CE010E94480F080F62
:1021C000191FBB2039F066E872E0CE010E94CC0EE8
:1021D000080F191F7B2C772041F120E030E040E20E
:1021E00051E4C701B6010E9425156B017C010E94D4
:1021F0003E144B01AA2497FCA094BA2C2AE030E0AC
:10220000B501A401CE010E94A10F080F191FC5013D
:10221000B4010E9471149B01AC01C701B6010E9478
:102220006D136B017C017A94D6CFC801DF91CF91F9
:102230001F910F91FF90EF90DF90CF90BF90AF90E4
:102240009F908F907F906F905F904F9008950C9427
:102250003C101F920F920FB60F9211242F933F93B1
:102260008F939F93AF93BF938091AB049091AC04F5
:10227000A091AD04B091AE043091AA0423E0230FE5
:102280002D3720F40196A11DB11D05C026E8230FAE
:102290000296A11DB11D2093AA048093AB049093D4
:1022A000AC04A093AD04B093AE048091AF049091C0
:1022B000B004A091B104B091B2040196A11DB11D6A
:1022C0008093AF049093B004A093B104B093B20490
:1022D000BF91AF919F918F913F912F910F900FBE22
:1022E0000F901F9018952FB7F8946091AB047091E0
:1022F000AC048091AD049091AE042FBF08953FB718
:10230000F8948091AF049091B004A091B104B09181
:10231000B20426B5A89B05C02F3F19F00196A11D58
:10232000B11D3FBF6627782F892F9A2F620F711D2D
:10233000811D911D42E0660F771F881F991F4A95E6
:10234000D1F70895CF92DF92EF92FF92CF93DF9370
:102350006B017C010E947F11EB01C114D104E104E7
:10236000F10489F00E941E130E947F116C1B7D0BEB
:10237000683E734090F381E0C81AD108E108F10883
:10238000C851DC4FEACFDF91CF91FF90EF90DF9003
:10239000CF900895019739F0880F991F880F991FE2
:1023A00002970197F1F70895789484B5826084BD0F
:1023B00084B5816084BD85B5826085BD85B5816049
:1023C00085BDEEE6F0E0808181608083E1E8F0E0A9
:1023D0001082808182608083808181608083E0E8D8
:1023E000F0E0808181608083E1EBF0E080818460B7
:1023F0008083E0EBF0E0808181608083E1E9F0E0C0
:10240000808182608083808181608083E0E9F0E068
:10241000808181608083E1EAF0E080818260808356
:10242000808181608083E0EAF0E080818160808348
:10243000E1E2F1E08081826080838081816080833D
:10244000E0E2F1E0808181608083EAE7F0E0808172
:1024500084608083808182608083808181608083CA
:102460008081806880831092C1000895863308F0CF
:10247000865320917B00982F9870277F922B909302
:102480007B0087702091160290E4299F900111240F
:10249000822B80937C0080917A00806480937A0004
:1024A00080917A0086FDFCCF8091780020917900A0
:1024B00090E0922B089590E0FC013197E231F10514
:1024C00008F04CC0EE58FF4F0C94411380918000EF
:1024D0008F7703C0809180008F7D80938000089566
:1024E00080918000877FF9CF84B58F7702C084B553
:1024F0008F7D84BD08958091B0008F7703C0809157
:10250000B0008F7D8093B0000895809190008F7708
:1025100007C0809190008F7D03C080919000877FDD
:102520008093900008958091A0008F7707C08091DC
:10253000A0008F7D03C08091A000877F8093A000C2
:102540000895809120018F7707C0809120018F7DB1
:1025500003C080912001877F809320010895CF934D
:10256000DF9390E0FC01EE57FD4F2491FC01E8530E
:10257000FD4F8491882349F190E0880F991FFC0159
:10258000E85DFC4FA591B491825F9C4FFC01C59121
:10259000D4919FB7611108C0F8948C912095822343
:1025A0008C93888182230AC0623051F4F8948C9114
:1025B000322F309583238C938881822B888304C0AB
:1025C000F8948C91822B8C939FBFDF91CF910895CB
:1025D0000F931F93CF93DF931F92CDB7DEB7282FB2
:1025E00030E0F901E45CFD4F8491F901EE57FD4FB5
:1025F0001491F901E853FD4F04910023C9F0882399
:1026000021F069830E945B126981E02FF0E0EE0FF8
:10261000FF1FE25FFC4FA591B4919FB7F8948C9196
:10262000611103C01095812301C0812B8C939FBF42
:102630000F90DF91CF911F910F9108950895A1E21E
:102640001A2EAA1BBB1BFD010DC0AA1FBB1FEE1F2C
:10265000FF1FA217B307E407F50720F0A21BB30B77
:10266000E40BF50B661F771F881F991F1A9469F7F3
:1026700060957095809590959B01AC01BD01CF014F
:102680000895EE0FFF1F0590F491E02D1994B7FF08
:102690000C9453130E945313821B930B08950790BD
:1026A000F691E02D19940E945E13A59F900DB49FA2
:1026B000900DA49F800D911D11240895A29FB0013B
:1026C000B39FC001A39F700D811D1124911DB29F66
:1026D000700D811D1124911D08955058BB27AA2704
:1026E0000ED075C166D130F06BD120F031F49F3F30
:1026F00011F41EF45BC10EF4E095E7FB51C1E92F24
:1027000077D180F3BA17620773078407950718F02B
:1027100071F49EF58FC10EF4E0950B2EBA2FA02D0B
:102720000B01B90190010C01CA01A0011124FF277E
:10273000591B99F0593F50F4503E68F11A16F04079
:10274000A22F232F342F4427585FF3CF4695379578
:102750002795A795F0405395C9F77EF41F16BA0B3D
:10276000620B730B840BBAF09150A1F0FF0FBB1FEB
:10277000661F771F881FC2F70EC0BA0F621F731F34
:10278000841F48F4879577956795B795F7959E3F91
:1027900008F0B3CF9395880F08F09927EE0F97951F
:1027A00087950895D9D008F481E008950CD00FC121
:1027B00007D140F0FED030F021F45F3F19F0F0C0B7
:1027C000511139C1F3C014D198F39923C9F355239A
:1027D000B1F3951B550BBB27AA2762177307840714
:1027E00038F09F5F5F4F220F331F441FAA1FA9F3CA
:1027F00033D00E2E3AF0E0E830D091505040E695BC
:10280000001CCAF729D0FE2F27D0660F771F881F1C
:10281000BB1F261737074807AB07B0E809F0BB0B0B
:10282000802DBF01FF2793585F4F2AF09E3F51052F
:1028300068F0B6C000C15F3FECF3983EDCF38695CC
:1028400077956795B795F7959F5FC9F7880F911DA5
:102850009695879597F90895E1E0660F771F881F91
:10286000BB1F621773078407BA0720F0621B730B44
:10287000840BBA0BEE1F88F7E095089504D0689496
:10288000B111D9C00895BCD088F09F5790F0B92FEE
:102890009927B751A0F0D1F0660F771F881F991FB5
:1028A0001AF0BA95C9F712C0B13081F0C3D0B1E0C7
:1028B0000895C0C0672F782F8827B85F39F0B93FD7
:1028C000CCF3869577956795B395D9F73EF49095B7
:1028D0008095709561957F4F8F4F9F4F0895E89435
:1028E00009C097FB3EF490958095709561957F4F58
:1028F0008F4F9F4F9923A9F0F92F96E9BB27939506
:10290000F695879577956795B795F111F8CFFAF415
:10291000BB0F11F460FF1BC06F5F7F4F8F4F9F4F46
:1029200016C0882311F096E911C0772321F09EE8A4
:10293000872F762F05C0662371F096E8862F70E00A
:1029400060E02AF09A95660F771F881FDAF7880FE4
:102950009695879597F90895990F0008550FAA0B3A
:10296000E0E8FEEF16161706E807F907C0F01216A2
:102970001306E407F50798F0621B730B840B950BA5
:1029800039F40A2661F0232B242B252B21F40895FA
:102990000A2609F4A140A6958FEF811D811D089597
:1029A00097F99F6780E870E060E008959FEF80EC02
:1029B000089500240A9416161706180609060895A5
:1029C00000240A9412161306140605060895092E0B
:1029D0000394000C11F4882352F0BB0F40F4BF2B7A
:1029E00011F460FF04C06F5F7F4F8F4F9F4F0895BA
:1029F00057FD9058440F551F59F05F3F71F04795B0
:102A0000880F97FB991F61F09F3F79F08795089594
:102A1000121613061406551FF2CF4695F1DF08C0B3
:102A2000161617061806991FF1CF869571056105D0
:102A300008940895E894BB2766277727CB0197F978
:102A400008958ADF08F48FEF08950BD0C0CFB1DF6F
:102A500028F0B6DF18F0952309F0A2CFA7CF1124F4
:102A6000EACFC6DFA0F3959FD1F3950F50E0551F35
:102A7000629FF001729FBB27F00DB11D639FAA27D3
:102A8000F00DB11DAA1F649F6627B00DA11D661F22
:102A9000829F2227B00DA11D621F739FB00DA11D43
:102AA000621F839FA00D611D221F749F3327A00DFD
:102AB000611D231F849F600D211D822F762F6A2F99
:102AC00011249F5750408AF0E1F088234AF0EE0F1E
:102AD000FF1FBB1F661F771F881F91505040A9F72B
:102AE0009E3F510570F05CCFA6CF5F3FECF3983E60
:102AF000DCF3869577956795B795F795E7959F5F92
:102B0000C1F7FE2B880F911D9695879597F908952B
:102B100023DF880B990B08958F929F92AF92BF92FB
:102B2000CF92DF92EF92FF920F931F93CF93DF9399
:102B30008B016115710521F0DB018C9311969C933B
:102B4000EC015E01BFEFAB1ABB0A7501C8808C2D8A
:102B500090E00E940117892B11F0E501F2CFEDE220
:102B6000CE1208C07E01F2E0EF0EF11CC980DD2418
:102B7000D39409C02BE2C21205C07E0142E0E40EEC
:102B8000F11CC980D12CE701219743E050E06AE4B1
:102B900073E0CE010E940917892BC1F4239645E00A
:102BA00050E065E473E0CE010E940917892B09F417
:102BB00025960115110519F0D801CD93DC93D1109C
:102BC00006C160E070E080E89FE70AC143E050E0A2
:102BD00062E473E0CE010E940917892B59F40115B4
:102BE000110509F4F9C0B2E0EB0EF11CF801F18215
:102BF000E082F2C0F70160E070E0CB01C0E0D0E01D
:102C00007F01A0EDAA2EAC0C29E02A1530F14D2D44
:102C10004260B42E2D2D2870D2FE04C0211125C093
:102C2000219623C021112197A5E0B0E09B01AC01C2
:102C30000E945313660F771F881F991F6A0D711D1D
:102C4000811D911D6839A9E97A078A07A9E19A07C8
:102C500060F0BD2DB660BB2E08C02EEFA2120AC0D8
:102C6000D3FC50C04D2D4860B42E3196D701CC9086
:102C7000DB2CC6CF2C2D2F7D253409F043C0A0813D
:102C8000AD3241F4BD2DB061DB2E7F0122E0E20EBA
:102C9000F11C0CC07F01AB3231F04FEFE41AF40AA3
:102CA00021E030E006C0A2E0EA0EF11CA18122E0A2
:102CB00030E0A053AA3018F0E21AF30A23C0F7015B
:102CC00020E030E02038BCE03B075CF4A901440F71
:102CD000551F440F551F240F351F220F331F2A0F76
:102CE000311DAF014F5F5F4F7A01A081A053AA3021
:102CF00010F4FA01E7CFD4FE03C0319521953109D4
:102D0000C20FD31FD1FE09C00115110531F0E1E05A
:102D1000EE1AF108D801ED92FC920E946F142D2D4D
:102D20002370233019F04B015C0106C04B015C019C
:102D3000B7FAB094B7F8B09420E030E0A901C5012B
:102D4000B4010E94D213882309F43EC0D7FF06C005
:102D5000D195C195D10901E613E002C009E713E05E
:102D60006801B8E1CB1AD10890E2E92EF12CCE151A
:102D7000DF0574F0F8012591359145915491C50115
:102D8000B4010E9425154B015C01CE19DF09EFCF7C
:102D900004501109F594E7940C151D0541F78A2D8F
:102DA000880F8B2D881F8F3F49F020E030E0A9016C
:102DB000C501B4010E94D213811106C082E290E0E5
:102DC0009093B4048093B304C501B40109C060E0DA
:102DD00070E080E89FEF04C060E070E080EC9FE767
:102DE000DF91CF911F910F91FF90EF90DF90CF90E7
:102DF000BF90AF909F908F900895662777270C948F
:102E00008C15911129C0803219F089508550D0F766
:102E10000895FB01DC014150504088F08D918134D0
:102E20001CF08B350CF4805E659161341CF06B35C1
:102E30000CF4605E861B611171F3990B0895881B79
:102E4000FCCFFC018191861721F08823D9F79927BF
:102E500008953197CF01089599278827089513E0A1
:102E6000C4E8D3E000E006C022970109FE010BBFD1
:102E70000E944F13C638D10780E00807A9F7F894DD
:022E8000FFCF82
:102E82000200E803000076750000B80B00000300A2
:102E9200204E000002000100000000A103A40E4920
:102EA200563200456E64696E67206D756C746900F8
:102EB2006572723A20496E74657273686F745F6CE2
:102EC20061672073747566667570007374617274DD
:102ED200696E672073696E676C65007374617274E2
:102EE200696E67206D756C74690000000000830CC8
:102EF200A40ED60BEF0BE10B610C6E616E00696ED6
:082F020066006F7666002E00E8
:00000001FF
