:100000000C94C3010C94F4010C94F4010C94F401CD
:100010000C94F4010C94F4010C94F4010C94F4018C
:100020000C94F4010C94F4010C94F4010C94F4017C
:100030000C94F4010C94F4010C94F4010C94F4016C
:100040000C94F4010C94F4010C94F4010C94F4015C
:100050000C94F4010C94F4010C94F4010C94A01190
:100060000C94F4010C94C10D0C94F70D0C94F40154
:100070000C94F4010C94F4010C94F4010C94F4012C
:100080000C94F4010C94F4010C94F4010C94F4011C
:100090000C946E0E0C94A40E0C94F4010C94F401C8
:1000A0000C94F4010C94F4010C94F4010C94F401FC
:1000B0000C94F4010C94F4010C94F4010C94F401EC
:1000C0000C94F4010C94F4010C94F4010C94F401DC
:1000D0000C94F4010C94F4010C94F4010C94F401CC
:1000E0000C94F401EB12EE12DD12E112E71225136B
:1000F000F212F612FC12001304130A130E13121359
:10010000251318131C1320130C94D80C0C94E11213
:100110000C942B0E0C94A1030C94F2120C94181353
:100120000C9400130C940A130C941B0F0C94C20A29
:100130000C944D0C0C9412130C94FA0C0C940E139A
:100140000C94A40A0C94F6120C9420130C94FC1238
:100150000C947A0C0C94580C0C94EE120C94D80E4F
:100160000C94CE0E0C9425130C9404130C94DD12F5
:100170000C94210E0C94EB120C94E7120C94660C68
:100180000C941C134E4F434845434B53554D200090
:10019000424144434845434B53554D20004241445E
:1001A0004C494E454E554D2000543130303B2D20AA
:1001B000746869732068656C70206D65737361671E
:1001C000650054323B2D2D2074726967676572207B
:1001D00066756C6C2070726F6772616D65642073F8
:1001E000657175656E63650054313B2D2D20747209
:1001F00069676765722063616D6572612066756C01
:100200006C79206F6E636500436F6D6D616E647312
:100210003A00696E74657276616C6F6D65746572B3
:1002200020776974682047636F64652020003E0072
:1002300020463437353B004731205A0000000A0B76
:1002400002090C0D0E080703040100000000000065
:10025000000000000000000000000000000000009E
:10026000000000000000000012111000000000005B
:10027000000000000000000000000000000000007E
:1002800000000102102020080810204010204080AB
:10029000020102010804020101020408102040804A
:1002A00080402010080402018004020180402010D8
:1002B0000804020108040201010204081020408021
:1002C00001020408102040800505050507050808FF
:1002D0000808020202020A0A0808040404040101D0
:1002E00001010101010103030303030303030407E5
:1002F00007070C0C0C0C0C0C0C0C0202020206067C
:100300000606060606060B0B0B0B0B0B0B0B000071
:100310002200250028002B002E00310034000201AD
:100320000000050108010B01000021002400270046
:100330002A002D00300033000101000004010701F4
:100340000A014E414E494E495459494E46CDCCCCF6
:100350003D0AD7233C17B7D13877CC2B329595E699
:10036000241FB14F0A000020410000C84200401C79
:100370004620BCBE4CCA1B0E5AAEC59D7400A40AD2
:100380002B0ED80EC20A11241FBECFEFD1E2DEBF62
:10039000CDBF00E00CBF12E0A0E0B2E0E0E7FFE27A
:1003A00000E00BBF02C007900D92A237B107D9F74A
:1003B00024E0A2E7B2E001C01D92AD3BB207E1F735
:1003C00013E0C4E8D3E000E006C022970109FE0173
:1003D0000BBF0E94C613CE37D10780E00807A9F7EC
:1003E0000E94400B0C94A6170C940000CF93DF934F
:1003F000EC0160E08E810E945F1381E090E00E943A
:10040000411261E08E810E945F1381E090E00E94C2
:10041000411260E08E810E945F1384E690E0DF91DC
:10042000CF910C944112CF92DF92EF92FF920F93F3
:100430001F93CF93DF937C01C0E0D0E0C62ED12C78
:1004400087010C0F1D1F61E0F80187810E942613B0
:10045000B6010C2E02C0759567950A94E2F761709B
:10046000F80187810E945F132196C430D10541F7BE
:10047000C701DF91CF911F910F91FF90EF90DF9017
:10048000CF900C94F601CF92DF92EF92FF920F93F0
:100490001F93CF93DF937C01C0E0D0E0C62ED12C18
:1004A00087010C0F1D1F61E0F80187810E94261350
:1004B000B6010C2E02C0759567950A94E2F761703B
:1004C000F80187810E945F132196C830D10541F75A
:1004D000C701DF91CF911F910F91FF90EF90DF90B7
:1004E000CF900C94F6011F93CF93DF93EC01162F5E
:1004F000642F8C810E945F138D818F3F19F060E023
:100500000E945F138F85612F84FF06C0CE01DF91AB
:10051000CF911F910C94430270E084E0759567952C
:100520008A95E1F7CE010E941302612FCE01DF917F
:10053000CF911F910C94130240E00C94730261E080
:100540000E949C0280ED97E00C944112443008F028
:1005500043E0FC012389421710F04FEF420FFC01EA
:10056000E40FF11D2489260F2068622F0C949C0251
:10057000FC016089262F2460208B6C600C949C0207
:10058000CF93DF93EC01423018F08F8588608F871E
:100590004B8B1C8A80E48D8B6E8B70E0605C7F4F90
:1005A0006F8B222329F0413019F48F8584608F8767
:1005B00080E593EC0E94411260E08C810E945F1301
:1005C00060E08E810E945F138D818F3F19F060E0A3
:1005D0000E945F136F8564FD1DC063E0CE010E9421
:1005E000130284E991E10E94411263E0CE010E946E
:1005F000130284E991E10E94411263E0CE010E945E
:10060000130286E990E00E94411262E0CE010E944E
:10061000130216C06062CE010E949C0284E991E13F
:100620000E9441126F856062CE010E949C0286E9A1
:1006300090E00E9441126F856062CE010E949C0290
:100640006F856062CE010E949C0284E0888BCE019F
:100650000E94B802CE010E949F0282E0898B66E070
:10066000CE01DF91CF910C949C026F927F928F927A
:10067000AF92CF92EF920F931F93CF93DF93CDB7AB
:10068000DEB73C01162F842F5E854F853889998906
:10069000F301848325830683E782C086A186828650
:1006A000538744873587968761E00E942613F301BC
:1006B00085818F3F19F061E00E94261361E0F3010C
:1006C00086810E942613112319F0F301178603C0B7
:1006D00080E1F301878720E041E060E1C301DF9121
:1006E000CF911F910F91EF90CF90AF908F907F900F
:1006F0006F900C94C0028F92AF92CF92EF920F93B3
:10070000DC0113961C921E921297E5E0F2E0ED9345
:10071000FC931F921F921F921F928C2CAE2CC02E06
:10072000E22E042F2FEF462F61E00E9435030F9039
:100730000F900F900F900F91EF90CF90AF908F9000
:10074000089541E00E94730281E090E0089521E065
:1007500030E0FC013183208308950895FC018081FD
:1007600091810895FC01828193810895FC01648147
:100770007581868197810895FC01608571858285E8
:1007800093850895FC01848595850895FC018389EE
:1007900094890895FC01658976898789908D0895EB
:1007A000FC01618D728D838D948D0895FC01858D82
:1007B000968D08950F931F93FC01A58DB68D27A1EB
:1007C00030A541A552A50E94BE13078D10A121A1FD
:1007D00032A1600F711F821F931F1F910F91089507
:1007E000FC0187A590A90895FC0161A972A983A9BC
:1007F00094A90895FC0165A976A987A990AD0895EB
:10080000FC0181AD92AD0895FC0121AD32AD2F5FA9
:100810003F4F32AF21AF0895FC01258D368D2F5FFC
:100820003F4F368F258F0895FC01248535852F5F36
:100830003F4F358724870895FC01718360830895B5
:10084000FC0140875187628773870895FC01758793
:1008500064870895FC0166870895FC01418F528FDB
:10086000638F748F0895FC01768F658F0895FC0166
:1008700045AB56AB67AB70AF0895FC0172AF61AF8B
:100880000895FC0181E190E09183808383E090E012
:100890009383828387E390E09583848388E390E069
:1008A000978386838AE090E09187808789E090E053
:1008B0009387828787E090E09587848785E090E042
:1008C0009787868784E090E0918B808B8DE090E025
:1008D000938B828B08950895FC01848195810895FE
:1008E000FC01808591850895FC018285938508959A
:1008F000FC01848595850895FC018685978508957A
:10090000FC01808991890895FC0182899389089569
:1009100084E792E00E94AD038AEF92E00E946B04AC
:100920008EE093E00C94500B0895CF92DF92EF92FB
:10093000FF926B017C0167E372E085E194E00E9425
:10094000590FC701B6010E94E81420E030E04AE7E1
:1009500054E40E944D14AB01BC0123E030E085E17A
:1009600094E00E949E1160E372E085E194E0FF90C4
:10097000EF90DF90CF900C949B0F84E792E00E9461
:10098000DA030E94950461E084E792E00C942A0463
:100990008AEF92E00E94840460E00E945F1361E0AD
:1009A0008EE093E00E94430C8AEF92E00E947C0468
:1009B00060E00E945F138AEF92E00E94800461E091
:1009C0000C945F138AEF92E00E94840461E00E941D
:1009D0005F1361E08EE093E00E943E0C8AEF92E0AC
:1009E0000E94700461E00E945F138AEF92E00E940F
:1009F000740461E00E945F138AEF92E00E947C041D
:100A000061E00C945F13CF92DF92EF92FF9280919E
:100A1000F8029091F90201969093F9028093F802FE
:100A20008AEF92E00E94840460E00E945F1361E01C
:100A30008EE093E00E94390C8AEF92E00E947804E5
:100A400061E00E945F130E94EA11AB01BC012AE041
:100A500030E088E793E00E94A1108EE093E00E94CE
:100A6000870B6B017C018EE093E00E946F0BAB0162
:100A7000BC014C0D5D1D6E1D7F1D8EE093E0FF904F
:100A8000EF90DF90CF900C940E0C8AEF92E00E94D2
:100A9000840461E00E945F1361E08EE093E00E94B5
:100AA000480C8AEF92E00E94780460E00E945F1395
:100AB0008AEF92E00E94800460E00C945F138AEF5A
:100AC00092E00E94700460E00E945F138AEF92E05F
:100AD0000E94740460E00C945F131092B5021092AF
:100AE000B4026EE272E088E793E00C94590F62E181
:100AF00072E088E793E00E94590F4AE050E062E01C
:100B000070E088E793E00E946A1068E072E088E78E
:100B100093E00E949B0F68EE71E088E793E00E94EB
:100B20009B0F62EC71E088E793E00E949B0F69EAFB
:100B300071E088E793E00C949B0F20E042E060E1D5
:100B400080E693E00E94C00269E072E080E693E0F4
:100B50000E947E0F8AEF92E00E94840461E00E946E
:100B6000261326E040E052EC61E070E088E793E075
:100B70000E945F0D26E040E052EC61E070E085E10C
:100B800094E00E945F0D0E9477050E946D0540E988
:100B900051E060E070E08EE093E00E94CC0B44E610
:100BA00050E060E070E08EE093E00E94DE0B44E6EF
:100BB00050E060E070E08EE093E00E94D20B4AE0EB
:100BC00050E060E070E08EE093E00E94D80B4AE0D5
:100BD00050E060E070E08EE093E00E94E40B48EEAD
:100BE00053E060E070E08EE093E00E94EA0B40E0AA
:100BF00050E0BA018EE093E00E940E0C8AEF92E082
:100C00000E94700461E00E9426138AEF92E00E9425
:100C1000700460E00E945F138AEF92E00E94740407
:100C200061E00E9426138AEF92E00E94740460E063
:100C30000E945F138AEF92E00E94780461E00E94B4
:100C400026138AEF92E00E94780460E00E945F130E
:100C50008AEF92E00E947C0461E00E945F138AEFB9
:100C600092E00E947C0461E00E9426138AEF92E0E9
:100C70000E947C0461E00E945F138AEF92E00E9470
:100C8000800461E00E9426138AEF92E00E948004B3
:100C900060E00E945F138AEF92E00E94840460E0AB
:100CA0000E945F1364EF71E080E090E00E941912EF
:100CB0008AEF92E00E94840461E00E945F13109228
:100CC000AF020895CF92DF92EF92FF920E94EA1155
:100CD0006B017C018EE093E00E946F0BA7019601EF
:100CE000261B370B480B590BCA01B901FF90EF9037
:100CF000DF90CF9008951092AF026DE072E088E728
:100D000093E00C94AD0FCF92DF92EF92FF926B01C4
:100D10007C018EE093E00E947B0BA7019601261BCD
:100D2000370B480B590BDA01C90181159E45A04DBF
:100D3000B24B50F4B701A6018EE093E0FF90EF9024
:100D4000DF90CF900C94FC0BFF90EF90DF90CF9052
:100D500008958F929F92AF92BF92CF92DF92EF92BF
:100D6000FF920F931F938EE093E00E948D0B6B0117
:100D70007C018EE093E00E946F0B97018601061BB9
:100D8000170B280B390BB901A8018EE093E00E94E4
:100D9000080C8EE093E00E94870B61367A4E810545
:100DA000910574F048EE53E060E070E08EE093E06F
:100DB0000E94080C6AE172E088E793E00E94AD0FA0
:100DC0000E94EA114B015C018EE093E00E94510BFE
:100DD0006B017C01C80CD91CEA1CFB1C8EE093E063
:100DE0000E94630BC60ED71EE81EF91E8EE093E02C
:100DF0000E946F0BC61AD70AE80AF90A8EE093E040
:100E00000E94870B6C157D058E059F0534F4B70194
:100E1000A6018EE093E00E94080C8EE093E00E9411
:100E2000780B882381F08EE093E00E94810B6B01A8
:100E30007C018EE093E00E94870B6C157D058E058A
:100E40009F050CF47CC08EE093E00E94870B6B0141
:100E50007C018EE093E00E94630B97018601061BE4
:100E6000170B280B390BB901A8018EE093E00E9403
:100E70001A0C8EE093E00E94870B6B017C018EE0E0
:100E800093E00E94630BC61AD70AE80AF90A8EE0BB
:100E900093E00E94510B97018601061B170B280B4C
:100EA000390BB901A8018EE093E00E94140C8EE08A
:100EB00093E00E94870B6B017C018EE093E00E941F
:100EC000690B97018601061B170B280B390BB9011B
:100ED000A8018EE093E00E94210C8EE093E00E9436
:100EE000A00B6B017C018EE093E00E945D0BAB01D7
:100EF000BC014C0D5D1D6E1D7F1D8EE093E00E94B8
:100F0000290C8EE093E00E94870B6B017C018EE040
:100F100093E00E94570BAB01BC014C0D5D1D6E1D93
:100F20007F1D8EE093E01F910F91FF90EF90DF9077
:100F3000CF90BF90AF909F908F900C94310C8EE02B
:100F400093E00E94810BAB01BC018EE093E00E9414
:100F5000080C79CFCF92DF92EF92FF920F931F93FD
:100F60000E94EA11AB01BC018EE093E00E94F00BFD
:100F70008EE093E00E94780B8823B1F08EE093E03E
:100F80000E947B0B6B017C018EE093E00E946F0B53
:100F900097018601061B170B280B390BB901A80115
:100FA0008EE093E00E94020C60E08EE093E00E94ED
:100FB000430C60E08EE093E00E943E0C60E08EE027
:100FC00093E00E94390C60E08EE093E00E94480CB0
:100FD0008EE093E00E94750B81110E94BD040E9477
:100FE000A9068EE093E00E94510B672B682B692BBA
:100FF00019F088E090E002C08CE090E090937302DA
:10100000809372021F910F91FF90EF90DF90CF902D
:101010000895CF92DF92EF92FF9284E792E00E94D0
:10102000040484E792E00E9400047C0184E792E0DB
:101030000E94F003E816F9060CF46BC060E070E063
:1010400084E792E00E943D0484E792E00E940C0451
:1010500084E792E00E94D6037C0184E792E00E943C
:10106000C603E816F906D4F160E070E084E792E088
:101070000E94330484E792E00E94140484E792E023
:101080000E94C2037C0184E792E00E94B203E8164A
:10109000F9064CF060E070E084E792E00E942604DC
:1010A0000E947B0610C084E792E00E94BC036B01A3
:1010B0007C0184E792E00E94B6036C0D7D1D8E1DBD
:1010C0009F1D0E9483068EE093E00E947B0BAB0184
:1010D000BC0184E792E00E94200410C084E792E003
:1010E0000E94D0036B017C0184E792E00E94CA0356
:1010F0006C0D7D1D8E1D9F1D0E9483068EE093E06A
:101100000E947B0BAB01BC0184E792E00E942D049E
:1011100010C084E792E00E94FA036B017C0184E72F
:1011200092E00E94F4036C0D7D1D8E1D9F1D0E9498
:1011300083068EE093E00E947B0BAB01BC0184E749
:1011400092E00E9437048091AF02882331F0FF9033
:10115000EF90DF90CF900C94AA07FF90EF90DF9074
:10116000CF9008950E945F0584E792E00E94AE034D
:10117000029711F40C9409081092AF020895CF92CF
:10118000DF92EF92FF920E9462066B017C018EE07B
:1011900093E00E94B80B811109C08EE093E00E9499
:1011A000930BC616D706E806F906E0F58EE093E045
:1011B0000E94BD0B811109C08EE093E00E94990B43
:1011C000C616D706E806F90680F58EE093E00E9481
:1011D000C20B811109C08EE093E00E94A00BC616DD
:1011E000D706E806F90620F58EE093E00E94C70BCB
:1011F000811109C08EE093E00E94A80BC616D706A5
:10120000E806F906C0F48EE093E00E94B00BC61623
:10121000D706E806F90690F0FF90EF90DF90CF90A8
:101220000C94B2080E94C804C1CF0E94E204CDCF42
:101230000E940305D9CF0E944505E5CFFF90EF90AE
:10124000DF90CF9008958091AF0281111BC065E3BC
:1012500072E088E793E00E94AD0F60E08EE093E0DB
:101260000E94F60B60E08EE093E00E94F90B81E0B3
:101270008093AF0261E070E084E792E00E941C047A
:101280000C94AA0708958091AF02811145C065E4CE
:1012900072E088E793E00E94AD0F61E08EE093E09A
:1012A0000E94F60B61E08EE093E00E94F90B81E072
:1012B0008093AF0262E070E084E792E00E941C0439
:1012C0000E94EA11AB01BC0184E792E00E94200475
:1012D00060E070E084E792E00E9426040E94EA1138
:1012E000AB01BC0184E792E00E942D0460E070E055
:1012F00084E792E00E9433040E94EA11AB01BC0132
:1013000084E792E00E94370460E070E084E792E0B6
:101310000E943D040C94AA0708958AEF92E00E946F
:101320006C040E94AD12893B910514F40C942309BE
:101330008834914014F40C9443090895CF92DF92BD
:10134000EF92FF921F93CF93DF93182F6A017B01D7
:10135000C091B402D091B502CA54DD4F86EB92E041
:101360000097C9F0FC0120812223A9F08C179D076A
:1013700090F421130AC00196DF91CF911F91FF9045
:10138000EF90DF90CF900C94741760E270E00E94B1
:1013900098170196E5CFC701B601DF91CF911F9154
:1013A000FF90EF90DF90CF9008950F931F9380915F
:1013B000B6028B3309F4C5C040E050E060E87FEB33
:1013C0008EE40E949E090E94B5146F3F2FEF7207B2
:1013D0008207920709F462C02091B6022E3409F008
:1013E0005DC00091B0021091B1022091B202309123
:1013F000B302601771078207930719F06DE971E076
:1014000023C06AE270E086EB92E00E949817892B75
:1014100079F1E6EBF2E000E0CF01865B92402191AA
:101420002A3211F00227F8CF60E070E089549D4F16
:101430000E940316112707FD10950E94B514061788
:101440001707C9F060E971E088E793E00E94590F3F
:101450004091B0025091B1026091B2027091B3021A
:101460002AE030E088E793E01F910F910C948210FE
:1014700064E871E0E9CF8091B0029091B102A0914F
:10148000B202B091B3020196A11DB11D8093B002CA
:101490009093B102A093B202B093B30240E050E047
:1014A00060E87FEB84E40E949E0940E050E060E841
:1014B0007FEB8DE40E949E090E94B514643671058D
:1014C0008105910511F40E94770540E050E060E845
:1014D0007FEB84E50E949E090E94B5146A35710570
:1014E0008105910509F174F461307105810591055B
:1014F000B9F0623071058105910519F51F910F91C1
:101500000C9443096B3571058105910591F06436A2
:10151000710581059105A9F41F910F910C94770530
:101520001F910F910C94230960E177E280E090E035
:1015300004C068E97AE380E090E01F910F910C9479
:1015400095041F910F910895CF92EF920F9380E22F
:10155000C82E91E2E92E02E223E244E265E280E64F
:1015600093E00E947B038EE093E00E944F0B8AEF92
:1015700092E00E94410484E792E00F91EF90CF90B7
:101580000C94A7030C948804CF9388E793E00E94FF
:101590004D0C18161906E4F588E793E00E94660CD6
:1015A000C82F682F85E194E00E94800FCD3069F349
:1015B0006C2F88E793E00E94800F2091B402309155
:1015C000B502203431055CF4A9014F5F5F4F5093A1
:1015D000B5024093B402F901EA54FD4FC083CA300A
:1015E000A1F6E091B402F091B502EA54FD4F1082E9
:1015F0000E94D5090E946D05C8CF85E194E00E9444
:10160000660C8D3029F0682F88E793E00E94800FE8
:1016100085E194E00E944D0C1816190674F3CF91E1
:1016200008952091F6023091F7028091F80290918E
:10163000F90228173907C1F041E060E080E693E045
:101640000E94A6026091F8027091F9024AE050E00F
:1016500080E693E00E9462108091F8029091F90276
:101660009093F7028093F6028091AF02882321F0D5
:101670000E94BF080C948D090E948D090C94C40A25
:101680000E944B120E9494040E949D05CAE7DCE070
:101690000E94110B2097E1F30E947A0CF9CF089574
:1016A0000895FC0160817181828193810895FC011C
:1016B00064817581868197810895FC0160857185BB
:1016C000828593850895FC01648575858685978557
:1016D0000895FC0160897189828993890895FC01CC
:1016E000608D718D828D938D0895FC0180A1089588
:1016F000FC0181A10895FC0162A173A184A195A1BF
:101700000895FC0166A177A180A591A50895FC012B
:1017100062A573A584A595A50895FC0166A577A586
:1017200080A991A90895FC0162AD73AD84AD95AD1A
:101730000895CE96FC016081718182819381089524
:101740008E5B9F4FFC01608171818281938108953E
:101750008A5B9F4FFC016081718182819381089532
:10176000865B9F4FFC016081718182819381089526
:10177000825B9F4FFC0180810895815B9F4FFC013C
:1017800080810895805B9F4FFC01808108958F5A6E
:101790009F4FFC0180810895FC0140835183628347
:1017A00073830895FC01448355836683778308958A
:1017B000FC0140875187628773870895FC01448745
:1017C0005587668777870895FC01408B518B628B24
:1017D000738B0895FC01448B558B668B778B089532
:1017E000FC01408F518F628F738F0895FC0160A3BD
:1017F0000895FC0161A30895FC0142A353A364A3CF
:1018000075A30895FC0146A357A360A771A7089587
:10181000FC0142A753A764A775A70895FC0146A73A
:1018200057A760AB71AB0895FC0142AF53AF64AFF3
:1018300075AF0895CE96FC01408351836283738314
:1018400008958E5B9F4FFC014083518362837383B5
:1018500008958A5B9F4FFC014083518362837383A9
:101860000895865B9F4FFC0140835183628373839D
:101870000895805B9F4FFC0160830895815B9F4FBB
:10188000FC0160830895825B9F4FFC016083089593
:101890008F5A9F4FFC0160830895FC01818D228D3A
:1018A00090E0805C9F4F821B91098F739927089568
:1018B000FC01918D828D981731F0828DE80FF11D1A
:1018C000858D90E008958FEF9FEF0895FC01918D35
:1018D000828D981761F0828DDF01A80FB11D5D9692
:1018E0008C91928D9F5F9F73928F90E008958FEF00
:1018F0009FEF089581E29EE0892B41F080E090E027
:10190000892B21F00E94210E811125C08EEC9EE0D2
:10191000892B41F080E090E0892B21F00E94CE0ECF
:1019200081111CC080E090E0892B41F080E090E0C4
:10193000892B21F00E940000811113C080E090E00B
:10194000892BA1F080E090E0892B81F00E940000BB
:1019500081110AC008950E940000D8CF0E940000A3
:10196000E1CF0E940000EACF0C9400000895FC0132
:10197000848DDF01A80FB11DA35ABF4F2C91848D18
:1019800090E001968F739927848FA689B7892C934D
:10199000A089B1898C9180648C93938D848D9813E8
:1019A00006C00288F389E02D80818F7D80830895B1
:1019B000CF93DF93EC01888D8823C9F0EA89FB89F6
:1019C000808185FD05C0A889B9898C9186FD0FC0ED
:1019D0000FB607FCF5CF808185FFF2CFA889B989C2
:1019E0008C9185FFEDCFCE010E94B70CE7CFDF9140
:1019F000CF910895CF92DF92FF920F931F93CF93D1
:101A0000DF931F92CDB7DEB76C01DC015B969C9132
:101A10005B975C968C915C97981307C05096ED91FC
:101A2000FC915197808185FD32C0F601038D10E055
:101A30000F5F1F4F0F731127F02EF601848DF812E0
:101A400011C00FB607FCF9CFD6015096ED91FC916D
:101A50005197808185FFF1CFC60169830E94B70C41
:101A60006981EBCF838DE80FF11DE35AFF4F60834F
:101A7000D6015B960C935B975296ED91FC91539730
:101A800080818062808381E058968C930DC0D6015E
:101A90005696ED91FC91579760835096ED91FC918D
:101AA000519780818064808381E090E00F90DF9186
:101AB000CF911F910F91FF90DF90CF900895BF922B
:101AC000CF92DF92EF92FF92CF93DF93EC016A0106
:101AD0007B01B22EE889F98982E08083411581EE8D
:101AE000580761057105A1F060E079E08DE390E0B1
:101AF000A70196010E94961321503109410951090D
:101B00005695479537952795211580E1380798F028
:101B1000E889F989108260E874E88EE190E0A70115
:101B200096010E9496132150310941095109569599
:101B3000479537952795EC85FD853083EE85FF85A4
:101B40002083188EEC89FD89B082EA89FB89808127
:101B500080618083EA89FB89808188608083EA894B
:101B6000FB89808180688083EA89FB8980818F7D01
:101B70008083DF91CF91FF90EF90DF90CF90BF9067
:101B800008951F920F920FB60F9211240BB60F9269
:101B90002F938F939F93EF93FF93E0918803F0919E
:101BA00089038081E0918E03F0918F0382FD12C042
:101BB0009081809191038F5F8F73209192038217A0
:101BC00051F0E0919103F0E0E858FC4F958F80933D
:101BD000910301C08081FF91EF919F918F912F918F
:101BE0000F900BBE0F900FBE0F901F9018951F9275
:101BF0000F920FB60F9211240BB60F922F933F93B3
:101C00004F935F936F937F938F939F93AF93BF9304
:101C1000EF93FF9388E793E00E94B70CFF91EF9159
:101C2000BF91AF919F918F917F916F915F914F91F4
:101C30003F912F910F900BBE0F900FBE0F901F90F2
:101C4000189588E793E00E944D0C21E0892B09F458
:101C500020E0822F089510927B0310927A0388EE81
:101C600093E0A0E0B0E080937C0390937D03A09389
:101C70007E03B0937F0388E592E09093790380938D
:101C8000780385EC90E0909385038093840384EC43
:101C900090E0909387038093860380EC90E090938C
:101CA00089038093880381EC90E090938B03809369
:101CB0008A0382EC90E090938D0380938C0386ECF2
:101CC00090E090938F0380938E0310929103109273
:101CD0009203109293031092940308951F920F920F
:101CE0000FB60F9211240BB60F922F938F939F93E1
:101CF000EF93FF93E0912504F09126048081E09119
:101D00002B04F0912C0482FD12C0908180912E044E
:101D10008F5F8F7320912F04821751F0E0912E0472
:101D2000F0E0EB5EFB4F958F80932E0401C0808125
:101D3000FF91EF919F918F912F910F900BBE0F907C
:101D40000FBE0F901F9018951F920F920FB60F9213
:101D500011240BB60F922F933F934F935F936F9382
:101D60007F938F939F93AF93BF93EF93FF9385E1FF
:101D700094E00E94B70CFF91EF91BF91AF919F91BA
:101D80008F917F916F915F914F913F912F910F9024
:101D90000BBE0F900FBE0F901F90189585E194E039
:101DA0000E944D0C21E0892B09F420E0822F089538
:101DB000109218041092170488EE93E0A0E0B0E0AF
:101DC0008093190490931A04A0931B04B0931C04ED
:101DD00088E592E090931604809315048DEC90E0D2
:101DE00090932204809321048CEC90E0909324043F
:101DF0008093230488EC90E090932604809325043C
:101E000089EC90E090932804809327048AEC90E07A
:101E100090932A04809329048EEC90E090932C04F4
:101E200080932B0410922E0410922F0410923004F1
:101E3000109231040895CF92DF92EF92FF920F93A8
:101E40001F93CF93DF936C017A01EB01E60EF71E2F
:101E500000E010E0CE15DF0561F06991D601ED914B
:101E6000FC910190F081E02DC6011995080F191F12
:101E7000F1CFC801DF91CF911F910F91FF90EF90AB
:101E8000DF90CF9008956115710581F0DB010D9011
:101E90000020E9F7AD0141505109461B570BDC0109
:101EA000ED91FC910280F381E02D199480E090E0A7
:101EB0000895EF92FF920F931F93CF93DF938C01BE
:101EC000FB01C0E0D0E064917F018FEFE81AF80ACF
:101ED000662361F0D801ED91FC910190F081E02D35
:101EE000C8011995C80FD91FF701EDCFCE01DF91B9
:101EF000CF911F910F91FF90EF9008950C94430F95
:101F0000DC01ED91FC910190F081E02D19940F938B
:101F10001F93CF93DF93EC016DE00E94800F8C0143
:101F20006AE0CE010E94800F800F911FDF91CF9158
:101F30001F910F9108950F931F93CF93DF93EC019F
:101F40000E94590F8C01CE010E94870F800F911FB4
:101F5000DF91CF911F910F9108950F931F93CF930E
:101F6000DF93EC010E94430F8C01CE010E94870F8A
:101F7000800F911FDF91CF911F910F9108958F9244
:101F80009F92AF92BF92CF92DF92EF92FF920F9308
:101F90001F93CF93DF93CDB7DEB7A1970FB6F89419
:101FA000DEBF0FBECDBF7C01C42EE52FCB01D22EEC
:101FB00019A221E02D1510F02AE0D22E8E010F5D1E
:101FC0001F4F8D2C912CA12CB12C6C2D7E2FA50197
:101FD00094010E9496138C2DD29E801911240150D9
:101FE00011098A3014F4805D01C0895CF801808396
:101FF000211531054105510521F0C22EE32FCA01FB
:10200000E4CFB801C7010E94430FA1960FB6F89420
:10201000DEBF0FBECDBFDF91CF911F910F91FF901B
:10202000EF90DF90CF90BF90AF909F908F900895EA
:10203000CF92DF92EF92FF920F931F93CF93DF9394
:10204000EC016A017B012115310579F4E881F98100
:102050000190F081E02D642FDF91CF911F910F91BE
:10206000FF90EF90DF90CF9019942A303105E9F47A
:1020700077FF1AC06DE20E94800F8C01442755271C
:10208000BA014C195D096E097F092AE0CE010E9450
:10209000BF0F800F911FDF91CF911F910F91FF9084
:1020A000EF90DF90CF9008952AE0B701A601CE010E
:1020B000DF91CF911F910F91FF90EF90DF90CF9024
:1020C0000C94BF0F9A01AB01662757FD6095762FE0
:1020D0000C9418100F931F93CF93DF93EC019A0188
:1020E000AB01662757FD6095762F0E9418108C0172
:1020F000CE010E94870F800F911FDF91CF911F911A
:102100000F9108950F931F93CF93DF93EC010E94DB
:1021100018108C01CE010E94870F800F911FDF9154
:10212000CF911F910F9108952115310541F4DC01E4
:10213000ED91FC910190F081E02D642F19940C94A5
:10214000BF0F0F931F93CF93DF93EC010E94941066
:102150008C01CE010E94870F800F911FDF91CF91DC
:102160001F910F9108954F925F926F927F928F927D
:102170009F92AF92BF92CF92DF92EF92FF920F9316
:102180001F93CF93DF93EC016A017B01B22E9A017A
:10219000AB01C701B6010E94FF15882319F064E660
:1021A00072E027C026013701E89477F82FEF3FEF60
:1021B0004FE75FE7C301B2010E94FF1581110DC017
:1021C0002FEF3FEF4FE75FE7C301B2010E944914D1
:1021D00018161CF468E672E00CC02FEF3FEF4FE7D3
:1021E0005FE4C701B6010E9498151816ACF46CE6BE
:1021F00072E0CE01DF91CF911F910F91FF90EF9090
:10220000DF90CF90BF90AF909F908F907F906F9016
:102210005F904F900C94430F2FEF3FEF4FE75FEC31
:10222000C701B6010E94491487FDE1CF20E030E0EC
:10223000A901C701B6010E94491487FF0AC06DE2D7
:10224000CE010E94800F8C01F7FAF094F7F8F09419
:1022500002C000E010E0A12C60E070E080E09FE3AD
:10226000AB1441F020E030E040E251E40E944D1414
:10227000A394F6CF9B01AC01C701B6010E94E51300
:102280006B017C010E94BA142B013C010E94E614F0
:102290009B01AC01C701B6010E94E4136B017C01F4
:1022A0002AE0B301A201CE010E94BF0F080F191F3F
:1022B000BB2039F060E772E0CE010E94430F080FA7
:1022C000191F7B2C772041F120E030E040E251E4FF
:1022D000C701B6010E949C156B017C010E94B514D8
:1022E0004B01AA2497FCA094BA2C2AE030E0B50157
:1022F000A401CE010E941810080F191FC501B401D6
:102300000E94E8149B01AC01C701B6010E94E413CE
:102310006B017C017A94D6CFC801DF91CF911F91D8
:102320000F91FF90EF90DF90CF90BF90AF909F9074
:102330008F907F906F905F904F9008950C94B310A2
:102340001F920F920FB60F9211242F933F938F93EA
:102350009F93AF93BF938091B3049091B404A091E5
:10236000B504B091B6043091B20423E0230F2D37A9
:1023700020F40196A11DB11D05C026E8230F029689
:10238000A11DB11D2093B2048093B3049093B404B3
:10239000A093B504B093B6048091B7049091B804AB
:1023A000A091B904B091BA040196A11DB11D80930A
:1023B000B7049093B804A093B904B093BA04BF9142
:1023C000AF919F918F913F912F910F900FBE0F90E2
:1023D0001F9018952FB7F8946091B3047091B404CE
:1023E0008091B5049091B6042FBF08953FB7F8943B
:1023F0008091B7049091B804A091B904B091BA0447
:1024000026B5A89B05C02F3F19F00196A11DB11D4F
:102410003FBF6627782F892F9A2F620F711D811D6C
:10242000911D42E0660F771F881F991F4A95D1F7CB
:102430000895CF92DF92EF92FF92CF93DF936B01DB
:102440007C010E94F611EB01C114D104E104F104F6
:1024500089F00E9495130E94F6116C1B7D0B683E5B
:10246000734090F381E0C81AD108E108F108C8511F
:10247000DC4FEACFDF91CF91FF90EF90DF90CF90CC
:102480000895019739F0880F991F880F991F0297B7
:102490000197F1F70895789484B5826084BD84B57E
:1024A000816084BD85B5826085BD85B5816085BD4F
:1024B000EEE6F0E0808181608083E1E8F0E0108268
:1024C000808182608083808181608083E0E8F0E0A9
:1024D000808181608083E1EBF0E080818460808393
:1024E000E0EBF0E0808181608083E1E9F0E08081D1
:1024F00082608083808181608083E0E9F0E0808178
:1025000081608083E1EAF0E0808182608083808165
:1025100081608083E0EAF0E0808181608083E1E295
:10252000F1E0808182608083808181608083E0E24D
:10253000F1E0808181608083EAE7F0E0808184605F
:1025400080838081826080838081816080838081BC
:10255000806880831092C1000895863308F0865306
:1025600020917B00982F9870277F922B90937B006F
:1025700087702091000290E4299F90011124822B02
:1025800080937C0080917A00806480937A008091AF
:102590007A0086FDFCCF809178002091790090E050
:1025A000922B089590E0FC013197E231F10508F09B
:1025B0004CC0EE58FF4F0C94B813809180008F7779
:1025C00003C0809180008F7D80938000089580916A
:1025D0008000877FF9CF84B58F7702C084B58F7D67
:1025E00084BD08958091B0008F7703C08091B000C2
:1025F0008F7D8093B0000895809190008F7707C001
:10260000809190008F7D03C080919000877F8093A0
:10261000900008958091A0008F7707C08091A0005E
:102620008F7D03C08091A000877F8093A0000895D4
:10263000809120018F7707C0809120018F7D03C09A
:1026400080912001877F809320010895CF93DF93AD
:1026500090E0FC01EE57FD4F2491FC01E853FD4F43
:102660008491882349F190E0880F991FFC01E85D6F
:10267000FC4FA591B491825F9C4FFC01C591D49110
:102680009FB7611108C0F8948C91209582238C9398
:10269000888182230AC0623051F4F8948C91322FE1
:1026A000309583238C938881822B888304C0F8948F
:1026B0008C91822B8C939FBFDF91CF9108950F93C4
:1026C0001F93CF93DF931F92CDB7DEB7282F30E053
:1026D000F901E45CFD4F8491F901EE57FD4F14912F
:1026E000F901E853FD4F04910023C9F0882321F03C
:1026F00069830E94D2126981E02FF0E0EE0FFF1F84
:10270000E25FFC4FA591B4919FB7F8948C91611151
:1027100003C01095812301C0812B8C939FBF0F9024
:10272000DF91CF911F910F9108950895A1E21A2E84
:10273000AA1BBB1BFD010DC0AA1FBB1FEE1FFF1F65
:10274000A217B307E407F50720F0A21BB30BE40BB5
:10275000F50B661F771F881F991F1A9469F76095FC
:102760007095809590959B01AC01BD01CF010895B6
:10277000EE0FFF1F0590F491E02D1994B7FF0C9414
:10278000CA130E94CA13821B930B08950790F691F7
:10279000E02D19940E94D513A59F900DB49F900D24
:1027A000A49F800D911D11240895A29FB001B39F95
:1027B000C001A39F700D811D1124911DB29F700D4A
:1027C000811D1124911D08955058BB27AA270ED0B2
:1027D00075C166D130F06BD120F031F49F3F11F418
:1027E0001EF45BC10EF4E095E7FB51C1E92F77D1F0
:1027F00080F3BA17620773078407950718F071F41E
:102800009EF58FC10EF4E0950B2EBA2FA02D0B0173
:10281000B90190010C01CA01A0011124FF27591B25
:1028200099F0593F50F4503E68F11A16F040A22F2B
:10283000232F342F4427585FF3CF4695379527959C
:10284000A795F0405395C9F77EF41F16BA0B620B9B
:10285000730B840BBAF09150A1F0FF0FBB1F661FE2
:10286000771F881FC2F70EC0BA0F621F731F841F25
:1028700048F4879577956795B795F7959E3F08F04B
:10288000B3CF9395880F08F09927EE0F979587950A
:102890000895D9D008F481E008950CD00FC107D174
:1028A00040F0FED030F021F45F3F19F0F0C051113C
:1028B00039C1F3C014D198F39923C9F35523B1F367
:1028C000951B550BBB27AA2762177307840738F09F
:1028D0009F5F5F4F220F331F441FAA1FA9F333D0FE
:1028E0000E2E3AF0E0E830D091505040E695001CB2
:1028F000CAF729D0FE2F27D0660F771F881FBB1F6E
:10290000261737074807AB07B0E809F0BB0B802D47
:10291000BF01FF2793585F4F2AF09E3F510568F093
:10292000B6C000C15F3FECF3983EDCF38695779527
:102930006795B795F7959F5FC9F7880F911D969595
:10294000879597F90895E1E0660F771F881FBB1FF1
:10295000621773078407BA0720F0621B730B840B9E
:10296000BA0BEE1F88F7E095089504D06894B11172
:10297000D9C00895BCD088F09F5790F0B92F9927FF
:10298000B751A0F0D1F0660F771F881F991F1AF07A
:10299000BA95C9F712C0B13081F0C3D0B1E0089543
:1029A000C0C0672F782F8827B85F39F0B93FCCF3C4
:1029B000869577956795B395D9F73EF49095809570
:1029C000709561957F4F8F4F9F4F0895E89409C090
:1029D00097FB3EF490958095709561957F4F8F4F52
:1029E0009F4F9923A9F0F92F96E9BB279395F69568
:1029F000879577956795B795F111F8CFFAF4BB0FE6
:102A000011F460FF1BC06F5F7F4F8F4F9F4F16C049
:102A1000882311F096E911C0772321F09EE8872FD3
:102A2000762F05C0662371F096E8862F70E060E08F
:102A30002AF09A95660F771F881FDAF7880F969508
:102A4000879597F90895990F0008550FAA0BE0E8AC
:102A5000FEEF16161706E807F907C0F01216130660
:102A6000E407F50798F0621B730B840B950B39F4A0
:102A70000A2661F0232B242B252B21F408950A2606
:102A800009F4A140A6958FEF811D811D089597F946
:102A90009F6780E870E060E008959FEF80EC089504
:102AA00000240A941616170618060906089500242D
:102AB0000A9412161306140605060895092E0394A7
:102AC000000C11F4882352F0BB0F40F4BF2B11F41B
:102AD00060FF04C06F5F7F4F8F4F9F4F089557FD7A
:102AE0009058440F551F59F05F3F71F04795880F7C
:102AF00097FB991F61F09F3F79F087950895121613
:102B000013061406551FF2CF4695F1DF08C01616BE
:102B100017061806991FF1CF86957105610508946F
:102B20000895E894BB2766277727CB0197F9089586
:102B30008ADF08F48FEF08950BD0C0CFB1DF28F003
:102B4000B6DF18F0952309F0A2CFA7CF1124EACF62
:102B5000C6DFA0F3959FD1F3950F50E0551F629FFC
:102B6000F001729FBB27F00DB11D639FAA27F00DE6
:102B7000B11DAA1F649F6627B00DA11D661F829F0D
:102B80002227B00DA11D621F739FB00DA11D621FF2
:102B9000839FA00D611D221F749F3327A00D611D0F
:102BA000231F849F600D211D822F762F6A2F1124F1
:102BB0009F5750408AF0E1F088234AF0EE0FFF1F44
:102BC000BB1F661F771F881F91505040A9F79E3F7B
:102BD000510570F05CCFA6CF5F3FECF3983EDCF37D
:102BE000869577956795B795F795E7959F5FC1F7B8
:102BF000FE2B880F911D9695879597F9089523DFF1
:102C0000880B990B08958F929F92AF92BF92CF92AB
:102C1000DF92EF92FF920F931F93CF93DF938B017D
:102C20006115710521F0DB018C9311969C93EC01E9
:102C30005E01BFEFAB1ABB0A7501C8808C2D90E016
:102C40000E947817892B11F0E501F2CFEDE2CE1248
:102C500008C07E01F2E0EF0EF11CC980DD24D394A0
:102C600009C02BE2C21205C07E0142E0E40EF11C55
:102C7000C980D12CE701219743E050E06AE473E07A
:102C8000CE010E948017892BC1F4239645E050E0C5
:102C900065E473E0CE010E948017892B09F4259624
:102CA0000115110519F0D801CD93DC93D11006C19F
:102CB00060E070E080E89FE70AC143E050E062E432
:102CC00073E0CE010E948017892B59F4011511057C
:102CD00009F4F9C0B2E0EB0EF11CF801F182E082D8
:102CE000F2C0F70160E070E0CB01C0E0D0E07F010E
:102CF000A0EDAA2EAC0C29E02A1530F14D2D426032
:102D0000B42E2D2D2870D2FE04C0211125C021968D
:102D100023C021112197A5E0B0E09B01AC010E94E6
:102D2000CA13660F771F881F991F6A0D711D811DB9
:102D3000911D6839A9E97A078A07A9E19A0760F025
:102D4000BD2DB660BB2E08C02EEFA2120AC0D3FC68
:102D500050C04D2D4860B42E3196D701CC90DB2C5D
:102D6000C6CF2C2D2F7D253409F043C0A081AD3274
:102D700041F4BD2DB061DB2E7F0122E0E20EF11C9B
:102D80000CC07F01AB3231F04FEFE41AF40A21E0BE
:102D900030E006C0A2E0EA0EF11CA18122E030E0A2
:102DA000A053AA3018F0E21AF30A23C0F70120E07A
:102DB00030E02038BCE03B075CF4A901440F551F0C
:102DC000440F551F240F351F220F331F2A0F311DAB
:102DD000AF014F5F5F4F7A01A081A053AA3010F47A
:102DE000FA01E7CFD4FE03C0319521953109C20F16
:102DF000D31FD1FE09C00115110531F0E1E0EE1A33
:102E0000F108D801ED92FC920E94E6142D2D23705A
:102E1000233019F04B015C0106C04B015C01B7FA8D
:102E2000B094B7F8B09420E030E0A901C501B40136
:102E30000E944914882309F43EC0D7FF06C0D195EB
:102E4000C195D10901E613E002C009E713E068016A
:102E5000B8E1CB1AD10890E2E92EF12CCE15DF05AE
:102E600074F0F8012591359145915491C501B40153
:102E70000E949C154B015C01CE19DF09EFCF045075
:102E80001109F594E7940C151D0541F78A2D880F5B
:102E90008B2D881F8F3F49F020E030E0A901C5014C
:102EA000B4010E944914811106C082E290E090931F
:102EB000BC048093BB04C501B40109C060E070E0AC
:102EC00080E89FEF04C060E070E080EC9FE7DF9156
:102ED000CF911F910F91FF90EF90DF90CF90BF9017
:102EE000AF909F908F900895662777270C940316D4
:102EF000911129C0803219F089508550D0F708957A
:102F0000FB01DC014150504088F08D9181341CF070
:102F10008B350CF4805E659161341CF06B350CF4DC
:102F2000605E861B611171F3990B0895881BFCCFBD
:102F3000FC018191861721F08823D9F799270895FC
:102F40003197CF01089599278827089513E0C4E8A1
:102F5000D3E000E006C022970109FE010BBF0E94EA
:102F6000C613C638D10780E00807A9F7F894FFCF49
:102F70000100000000A1031B0F49563200456E649A
:102F8000696E67206D756C7469006572723A2049CC
:102F90006E74657273686F745F6C616720737475AB
:102FA00066667570007374617274696E6720736908
:102FB0006E676C65007374617274696E67206D75FD
:102FC0006C74690000000000FA0C1B0F4D0C660CBD
:102FD000580CD80C6E616E00696E66006F766600E4
:022FE0002E00C1
:00000001FF
